:020000041000EA
:1010000020050020191000100000000099100010A9
:1010100000040100000000801149124A124B00F048
:1010200018F8124880471249124A134B00F011F881
:101030001249134A134B00F00CF81349134A0020CD
:10104000521A02DD043A8850FCDC114880471148EE
:1010500080479B1A03DD043BC858D050FBDC704727
:101060007C2700100C0000201C0100200D11001036
:101070008C28001020050020E00500204C290010DD
:10108000E0050020E0050020E005002034060020F7
:101090003D2200108D1A0010FEE700008021064A54
:1010A000490113890B4313818023044A1B011168F2
:1010B0000B4313607047C0460000054048000540E0
:1010C0000C4B0D4A196810B50904090E11601B6814
:1010D0000A4ADBB213600A4C002907D00902C9187A
:1010E000084800F0BFFD4000206001E0064B23608F
:1010F00010BDC04600030140E0050020E4050020CB
:10110000FC3F0020000024F40048E80108B5FFF788
:10111000C5FF00F09BFB08BDF7B503240E1C26405D
:10112000A640F827B7408B089B00C3181D6901969D
:10113000BD434F00BC401D61456F0426A543456774
:1011400007250D40AD00AE40CC08A4000419276C63
:10115000B74327645678276CAE40351C3D43256461
:10116000094CA04204D101258D40046EAC430466B5
:10117000546812788C404460019819698240161CAA
:101180000E431E61F7BDC04600020440C022034B5F
:101190005A625A6A5207FCD47047C04600000140A8
:1011A00010B5041CFFF7F2FF054B186920431861C6
:1011B0001A685200FCD4C322024B5A6210BDC046CA
:1011C0000003014000000140F8B50D1C041CFFF7AE
:1011D000DDFF204B20491A681868120408401F4997
:1011E000120E08432843186018684000FCD41C4DB8
:1011F000A600A2421AD89000A0420DD2002A00D127
:1012000001321868920028400843160230431860E3
:1012100018684000FCD4EEE71A6824022A40114303
:10122000214319600CE018684000FCD4B242F3D9A5
:101230001868920828400843170238431860F2E7FC
:101240001A685200FCD4C322064B5A62FFF738FFDB
:10125000F8BDC0460003014000FF0FC00000F03F92
:10126000FF000FC00000014010B5041CFFF78EFF07
:10127000A2686168074811430368074A1340C32204
:101280000B430360054B5A6260782178FFF79CFF9F
:1012900010BDC04600030140FFFFF0FF0000014009
:1012A000014B18687047C046FC3F002010B503246E
:1012B00049008A408C40111C436FA3434367436F2E
:1012C0001943416710BD000038B50D1C041C00F027
:1012D000BBF82B79002B04D1201C2968022200F0D6
:1012E000CBF8094B6363A223DB00A3632B79002BAC
:1012F00003D10B226B791343E36301235B42E36465
:10130000EB88236438BDC04602013F07C26B034B24
:101310001340C363C36B1943C1637047FFFF00FFF2
:101320000122C36C1343C364C26B024B1340C363FB
:101330007047C046FFFF00FFFF2330B595012B40EB
:10134000C025046CAC4323430364031CFC33DC68FA
:10135000E023DB041C420CD17F24836BA343DBB26C
:10136000802BF9D08024C36CA4012343C3642032B2
:1013700000E060329200115030BDFE23026C5B022F
:101380000B4013430364C36B4907090C1943C16342
:10139000704770B50E1C041C00F056F8F379102548
:1013A000002B00D01D1C2A1C201C316800F064F8A2
:1013B0000122D540B379AD18013B5B0013432D02E8
:1013C0001D43E56333790232013B1B06FF321343B1
:1013D00063637379002B04D0626B013B1B041343DE
:1013E00004E03279616B531E1B040B436363A0233B
:1013F000DB00A36301235B42E3643389236470BD94
:10140000031CFC33DA68E023DB041A420BD17F2291
:10141000836B9343DBB2802BF9D080239B01C364A1
:101420000430C16702E0C0235B00C1507047031C59
:10143000E022FC331969D204114201D1406D00E071
:10144000186A80B270470000902310B5DB05041EB7
:101450009C4202D0074B984202D10820FFF7A0FE21
:101460000323E360E368DB07FCD50F22236C93437F
:10147000236410BD00020048F0B5012487B0632941
:101480003ED9002A3CD00E1C0492051CFFF708FF31
:10149000642100F0E7FB6421071C301C00F0E2FB34
:1014A000194E01940394341C049B43430593BB02DF
:1014B000DB1B02930298059900F0D4FB124A830AC1
:1014C000934206D88005800DB04202D2061C0193DB
:1014D0000394029B013CDB1B0293002CEAD1802386
:1014E000039A1B0213432B61049B6969074A013B62
:1014F0009B020A401A43019B013B1B041A436A6189
:10150000201C07B0F0BDC046FF030000EF8000FCC8
:10151000FC3030B5C568064C12062C40C460C56866
:10152000044C1B022C4021430A431343C36030BDCB
:10153000FFFFFFF8C0C0FFF8FC3030B50569084C6C
:1015400012062C4004610469064D1B0225408024CC
:1015500064052C4321430A431343036130BDC04655
:10156000FFFFFFF8C0C0FFEF10B507248C408A4092
:101570008369A3431343836110BD00000C4A08B57F
:101580001168031C002901D10A4911600321106868
:1015900003338B430849C3188B4201D2136005E023
:1015A00000F046FE0C2303600120404208BDC04607
:1015B000E805002038060020FC3F0020704708B5F1
:1015C00043685B68984708BDF8B54468A31CDE7F94
:1015D0000423022E35D10323002932D0002A30D033
:1015E0008568331C2F7E002F2BD1013B2B760434D2
:1015F000E37F002B04D0802403682402FC33DC61E9
:10160000041C0D1C8E1863680433DB7FB5420DD0BB
:10161000002B05D02268131CFC339B69DB04FAD431
:1016200029782068FFF7ECFE0135ECE7002B05D0A8
:101630002268131CFC339B691B05FAD50023A268A2
:101640001376181CF8BDF8B54468E31CDE7F04234C
:10165000022E34D10323002931D0002A2FD08568EF
:10166000331C6F7E002F2AD1013B6B760534E37F5C
:10167000002B04D080240368E401FC33DC61051CEA
:101680000C1C8E18B44217D06B680533DA7F2B68B8
:10169000002A05D01A1CFC3292691207FAD405E020
:1016A000C022996C12021142FAD0DA642868FFF75E
:1016B000BEFE20700134E5E70023AA685376181CAB
:1016C000F8BD000038B590241A4DE405281C1A4ACC
:1016D0000221FFF721FD201C1849FFF75AFE0722BF
:1016E0000621E369201C93430B43E361A36A0A319B
:1016F0009343A362236B93432363033A0123FFF7CE
:1017000007FF201C002104220F23FFF715FF0F22E3
:10171000236C281C93430D3A134323640121084A88
:10172000FFF7FAFC201C10210022FFF71DFF00200C
:1017300038BDC04600020440A8250010C425001092
:10174000BC25001008B543685B689847002008BDB9
:1017500038B52E4C2E49201CFFF7B6FD626B2D4B81
:1017600050211340F022120313436363F023626B92
:101770001B051343012210256363636B201C134375
:101780006363E36906328B432B43E361E36993436D
:10179000E361A36A8B432B43A362A36A9343A362CF
:1017A000E36A8B432B43E362E36A9343E362236B75
:1017B0008B432B432363236B93432363E36B0132FC
:1017C0009343E3636269144B1340C0221206134330
:1017D0006361FFF7A5FD0423E26B291C134302227A
:1017E000E363E36B201C1343E36362690B4B134019
:1017F000A022D200134363610022FFF7B5FE8021CF
:10180000201C4902FFF782FD38BDC0460002004897
:101810002C050020FFFFC0FFFFFFFF2FFF80FFFF11
:1018200010B5041C017B021D0068FFF775FC2068E1
:10183000217B627BFFF73AFD002010BD0378002B6F
:1018400001D10133037000207047000030B585B02E
:1018500001A8021C034B32CB32C2FFF705FD05B0D5
:1018600030BDC0466426001008B51648FFF7E6FFF5
:10187000002825D11448FFF7A2FE002820D11348E4
:10188000FFF760FF00281BD11148FFF7C9FF0028B0
:1018900016D11048FFF7C4FF002811D10E48FFF7FA
:1018A000BFFF00280CD10D48FFF7BAFF002807D171
:1018B0000B48FFF7B5FF002802D10A48FFF7B0FF39
:1018C00008BDC04608060020200500203405002081
:1018D00004260010142600102426001034260010C0
:1018E0004426001054260010024B1A68936CDB0447
:1018F000FCD570473405002010B5054C2068FFF773
:101900000FFD802120684902FFF700FD10BDC04691
:10191000340500208022842108B5054B5201186847
:101920008901C36C1343C3640022FFF705FD08BDA2
:1019300034050020F8B58025002801D02D0200E0F4
:10194000ED010B090807114A191C002300F01CFACD
:101950008026011C0E4F840B38687601C36C890405
:101960003343890C2943C3640022FFF7E5FCFFF7EA
:10197000BBFF3868A4B2C36C2C431E43C664211C51
:101980000022FFF7D9FCFFF7AFFFF8BD40787D01DB
:101990003405002008B50B2380225943074B520120
:1019A0001868C36C1343C364054B0022194389B202
:1019B000FFF7C2FCFFF798FF08BDC04634050020C2
:1019C00000C0FFFF08B5A023012800D080239B01A1
:1019D000002905D0012905D18021C9000B4301E070
:1019E0000B490B40012A03D0022A03D1282200E030
:1019F000022213438021074A49011068C26C0A433E
:101A0000C264191C0022FFF797FCFFF76DFF08BDA9
:101A1000FFFBFFFF3405002010B50B4C2068FFF7DB
:101A20007FFC802120688902FFF770FC074B802231
:101A3000187B196801235202824083404A604A6A37
:101A40001A42FCD110BDC0463405002034260010D7
:101A500038B580248821031C0A4D64012868490197
:101A6000C26C19432243C2640022FFF765FC2A6856
:101A7000936C2342FCD0044B1A68197B01238B40E2
:101A8000536038BD3405002034260010F0B58DB009
:101A9000FFF7EAFE0F2201248021684B051C18681D
:101AA0004901036C934323430364FFF766FC211C45
:101AB000634B1A681B7B9940624B51601E7B1A680E
:101AC00080235B0201921A1CB24002920299019A91
:101AD00051605D4A1168127B93404B60A54200D172
:101AE000FEE7FFF709FFFFF715FF584D1722281CE7
:101AF0005749FFF769FDB440002206ABDA7105943F
:101B00000495524C06ABDD1D201C291C0122FFF759
:101B10009AFD03900028F4D129780A29F1D04D4F7D
:101B20004D4E3B782068F15489B2FFF769FC3B7851
:101B3000351CF25C0D2A01D0002A70D13278002ABF
:101B4000DFD00024F454049B0D211868FFF758FCE3
:101B5000049B0A211868FFF753FC404E3D4B281C9C
:101B6000311C1C7000F098FBE5B208AF002809D0CA
:101B7000A300F850311C0020013400F08DFB042C30
:101B8000F2D1251CFFF7B8FE002D0FD0786800F0C9
:101B900049FB011C0020FFF7CDFE012D06D9B868D6
:101BA00000F040FB81B20020FFF7F4FE089B2A4EB4
:101BB000002B22D01B78732B07D0742B09D0712BEC
:101BC00010D100200222011C06E00020011C021C92
:101BD00002E000200122011CFFF7F4FE019B059AA0
:101BE0005A600AE0FFF796FE1922301C002100F02F
:101BF0004BFB019B029A5A6083E77F24022D03D995
:101C00000B9800F00FFBC4B2FFF706FF201CFFF794
:101C10001FFF301C0021192200F036FB71E7013351
:101C2000DBB23B70182B00D86BE7201C0C491E223E
:101C3000FFF7CAFC6B461B7B3B7062E73405002054
:101C400034260010442600105426001020050020E1
:101C50003C05002009060020140600205405002041
:101C600056050020002243088B4274D303098B429F
:101C70005FD3030A8B4244D3030B8B4228D3030C5C
:101C80008B420DD3FF22090212BA030C8B4202D3FE
:101C90001212090265D0030B8B4219D300E0090A26
:101CA000C30B8B4201D3CB03C01A5241830B8B422F
:101CB00001D38B03C01A5241430B8B4201D34B0318
:101CC000C01A5241030B8B4201D30B03C01A52417D
:101CD000C30A8B4201D3CB02C01A5241830A8B4202
:101CE00001D38B02C01A5241430A8B4201D34B02EB
:101CF000C01A5241030A8B4201D30B02C01A52414F
:101D0000CDD2C3098B4201D3CB01C01A5241830902
:101D10008B4201D38B01C01A524143098B4201D33C
:101D20004B01C01A524103098B4201D30B01C01A67
:101D30005241C3088B4201D3CB00C01A52418308E1
:101D40008B4201D38B00C01A524143088B4201D30E
:101D50004B00C01A5241411A00D20146524110466E
:101D60007047FFE701B5002000F00CF802BDC04647
:101D70000029F7D003B5FFF775FF0EBC4243891A5F
:101D80001847C0467047C046002B11D1002A0FD11A
:101D9000002900D1002802D00021C943081C07B443
:101DA000024802A14018029003BDC046D9FFFFFFC0
:101DB00003B4684601B5029800F022F8019B9E46E4
:101DC00002B00CBC7047C046F0B583B0161C1F1C97
:101DD0000090019100F058F8041C0D1C221C2B1CD3
:101DE000301C391C00F026F8009A019B121A8B4116
:101DF0000899201C0A604B60291C03B0F0BDC04646
:101E0000F0B5141C83B01D1C0090019100F034F952
:101E1000221C2B1C061C0F1C00F00CF8009A019BC6
:101E2000121A8B410899301C0A604B60391C03B0B0
:101E3000F0BDC046F0B54F46464605042D0C2C1C9F
:101E4000C0B41704160C3F0C9946030C7C43754331
:101E50005F4373437D19260CAD199C46AF4203D9ED
:101E600080235B029846C4444B46514343432404B9
:101E70002E0C240C2D0466442C1959188919201C89
:101E80000CBC90469946F0BDF0B544465F465646B8
:101E90004D46F0B41C1C85B0002900DAA9E00F1CE7
:101EA0000021061C8846101C191C002C00DA97E043
:101EB000341C3D1C82468946B94273D870D04946CD
:101EC000504600F085F98346391C301C00F080F93B
:101ED0005B46181A031C8346203B9C4600D59CE0B9
:101EE00000230022514600920193634699400191DC
:101EF00051468140019B0091BB4200D983E000D153
:101F00007EE0009A019B341C3D1CA41A9D4163464F
:101F1000002B00DA9AE0002600270296039701368C
:101F20009E400396012686400296002800D171E06B
:101F30000099019AD30799464B464E081E4357080D
:101F4000002301220CE0AF4201D1A6420AD8A41B13
:101F5000BD4124196D410138A4185D41002806D007
:101F6000AF42F0D9013824196D410028F8D1202260
:101F7000029E039F5B46524236196F4199185AD40C
:101F8000281CC8402C1C5B46DC40002968DB041C74
:101F90008C40231C59468840021CB61A9F4103E01E
:101FA000B0428CD90026002741464B1E99410023A0
:101FB00000910193009A019B002554429D41331CDE
:101FC0006340181C3B1C6B40191C009B019CC018F3
:101FD000614105B03CBC90469946A246AB46F0BD77
:101FE0004346DB430C1C9846131C00215842A14178
:101FF0005EE7002746428F4101214942884652E769
:10200000B14200D87DE700260027029603970028FA
:1020100000D08DE7029E039FC6E720215346091A90
:10202000CB400022191C0023009201934B468340B1
:102030000B4301935CE75A4620239B1A2A1C9A40C3
:10204000201C131C5A46D04018439BE7202600272B
:10205000331A0026029603970127DF40039761E7B2
:102060005B4620215D46C91A031CAC40CB40191CBD
:10207000231C0B438EE7C046F0B545464E465746F7
:10208000E0B4041C82B00D1C914698468B4262D885
:102090005FD04146484600F09BF8291C061C201CD6
:1020A00000F096F82023311A5B428A46C81865D49E
:1020B0004B4683401F1C4B468B401E1CAF4258D8DA
:1020C00055D0A41BBD41002800DA77E00022002390
:1020D0000092019301328240019201238B400093D0
:1020E00000293CD0FB079846404672087B08024313
:1020F000012600270CE0AB4201D1A2420AD8A41A63
:102100009D4124196D410139A4197D41002906D052
:10211000AB42F0D9013924196D410029F8D12022B0
:102120000098019953465242001969419E183AD4C9
:102130002F1CF7405346DD40002E29DB3C1CB440E9
:10214000231C5446A7403A1C801A994100900191E3
:1021500005E082429DD90023002400930194009859
:10216000019902B01CBC90469946A246F0BDA3421C
:10217000A7D90022002300920193B1E720224B4609
:10218000521AD3401A1C43468B401F1C174392E738
:10219000534620245646E41A3B1CB540E3401C1C21
:1021A0002B1C2343CDE7524620239B1A2A1C9A401E
:1021B000271C131C5246D7401F43BBE72023002295
:1021C000581A0023009201930132C240019284E721
:1021D00010B5002903D100F007F8203002E0081CF8
:1021E00000F002F810BDC0461C2101231B049842D8
:1021F00001D3000C10391B0A984201D3000A083998
:102200001B09984201D30009043902A2105C40184E
:102210007047C046040302020101010100000000F2
:102220000000000008B500210A2200F027F908BDCF
:10223000014B18687047C046D80500200E4B70B59A
:1022400000251E1C0D4CE41AA410A54204D0AB00BE
:10225000F35898470135F8E7FFF7B0F9084B002528
:102260001E1C084CE41AA410A54204D0AB00F3587D
:1022700098470135F8E770BDE0050020E005002033
:10228000E0050020E0050020031C8218934202D0E4
:1022900019700133FAE77047F8B5174B071C1D6832
:1022A0000E1CAC6D002C1FD1502000F0F5F8A86575
:1022B0008460AB6D046044601C61DC60AB6D9C614C
:1022C0005C61AB6DDC629C62AB6D5C631C63AB6D8F
:1022D000DC639C63AB6D5C641C64AB6DDC649C6410
:1022E000AB6D1C77AB6D5C62381C311CAA6D012391
:1022F00000F004F8F8BDC046D8050020F0B5041E73
:102300000CD11468201E09D126E03778002F0CD09C
:102310000136B842F9D1002B04D02C1C651C207862
:102320000E1CF2E71560237015E0002808D110603C
:1023300012E00778B74207D00130002FF9D11D1CF9
:102340006B1C2E78081CF4E7002E02D000212970A7
:1023500000E0331C1360201CF0BD0000F0B51E1C13
:10236000444B87B01B68059002930B1C03910192AC
:102370001C78029A5D1C121950780822104001D076
:102380002B1CF5E72D2C04D19D1C5C7801230093B8
:1023900004E000902B2C01D15C789D1C002E02D013
:1023A000102E0AD160E0302C5CD120222B78934390
:1023B000582B52D110266C780235009F311C7B1EA1
:1023C0009F412D4BFF18381CFFF7D2FC381C04919D
:1023D000311CFFF747FC0022071C131C0299091946
:1023E0004978480701D5303C07E00320084017D062
:1023F0003721012800D02031641AB44210DA511C70
:102400000BD0BB4207D802D1049A944203DC734339
:102410000122E31801E0012252422C780135DDE768
:10242000181C511C0BD10098059A431E9841124B61
:10243000C01822231360019B002B0AD117E00099DA
:10244000002900D05842019B002B10D0039B002A8A
:1024500000D06B1E019A136009E03024002EACD12D
:102460000826AAE70A26A8E7302CA6D19DE707B0E0
:10247000F0BDC046DC050020FFFFFF7F38B5051C1E
:102480000C1C131C034A291C1068221CFFF766FF52
:1024900038BDC046D805002008B5034B011C18689C
:1024A00000F004F808BDC046D8050020032370B52D
:1024B000CC1C9C430834051C0C2C01D20C2405E0D8
:1024C000002C03DA0C2300202B6042E08C42F9D36D
:1024D000204A1368101C191C002913D00A68121B0B
:1024E0000DD40B2A02D90A608B181FE08B4202D14F
:1024F0005A6802601BE04A685A600B1C17E00B1C0C
:102500004968E9E7144E3368002B03D1281C00F01A
:1025100025F83060281C211C00F020F8031C421C08
:10252000D0D00322C61C964386420AD11C60181CD8
:1025300007210B301A1D8843821A0AD05142995044
:1025400007E0311A281C00F009F8431CBAD0331CEC
:10255000ECE770BD100600200C06002038B5002303
:10256000064C051C081C2360FFF708F8431C03D128
:102570002368002B00D02B6038BDC04630060020F9
:10258000C4250010C5160010000000000000000067
:10259000000000000000000000000000B025001056
:1025A000000202040400000000000000010000001E
:1025B0000002044001000000BC250010B000000033
:1025C0000100000000C20100080801100000000026
:1025D00000000100000001000000000000000000F9
:1025E00000000000000000000000000000000000EB
:1025F0002C0500205117001004000000D025001009
:102600000000020000000440B800000000000100CB
:102610000700000000000440B800000000000100B6
:102620000800000000000440B800000000000100A5
:1026300009000000000004408000000000000100CC
:1026400006000000000104408000000000000100BE
:1026500000000000000104408000000000000100B4
:102660000100000000020000000001000000000066
:102670004300002020202020202020202828282857
:102680002820202020202020202020202020202042
:102690002020208810101010101010101010101092
:1026A00010101004040404040404040404101010A2
:1026B000101010104141414141410101010101014E
:1026C00001010101010101010101010101011010DC
:1026D0001010101042424242424202020202020222
:1026E00002020202020202020202020202021010AE
:1026F000101020000000000000000000000000009A
:1027000000000000000000000000000000000000C9
:1027100000000000000000000000000000000000B9
:1027200000000000000000000000000000000000A9
:102730000000000000000000000000000000000099
:102740000000000000000000000000000000000089
:102750000000000000000000000000000000000079
:102760000000000000000000000000000000000069
:0327700000000066
:0827740014F7FF7F01000000D3
:10277C002C4887460000000000000000000000000C
:10278C00000000000000000000000000000000003D
:10279C0025488746000000000000000023488746BB
:1027AC00234887462348874623488746234887463D
:1027BC00234887462348874623488746234887462D
:1027CC000000000000000000214887462148874691
:1027DC002148874621488746214887462148874615
:1027EC002148874621488746000000000000000071
:1027FC0000000000000000001D4887461D48874669
:10280C001D4887461D488746000000000000000058
:10281C0000000000000000000000000000000000AC
:10282C000000000099100010991000109910001071
:10283C0099100010991000109910001099100010A8
:10284C009910001099100010991000109910001098
:10285C009910001099100010991000109910001088
:10286C009910001099100010991000109910001078
:10287C009910001099100010991000109910001068
:10288C000000004880250010EC050020400D0300DE
:10289C000004000000020048F0250010584D43329F
:1028AC00474F2F414439383333205761766547659C
:1028BC006E0D0A002C3B4552524F523A20496E7015
:1028CC00757420427566666572204F766572666C0B
:1028DC006F770D0A000000000000000000000000EF
:1028EC0000000000000000000000000000000000DC
:1028FC000000000000000000702600100000000026
:10290C0000000000000000000000000000000000BB
:10291C0000000000000000000000000000000000AB
:10292C00000000000000000000000000000000009B
:10293C000000000000000000780500207226001046
:0400000510001019BE
:00000001FF
